{"abi":[{"type":"constructor","inputs":[],"stateMutability":"nonpayable"},{"type":"function","name":"actors","inputs":[{"name":"","type":"address","internalType":"address"}],"outputs":[{"name":"actorAddress","type":"address","internalType":"address"},{"name":"name","type":"string","internalType":"string"},{"name":"role","type":"uint8","internalType":"enum LogisticsTracker.ActorRole"},{"name":"location","type":"string","internalType":"string"},{"name":"isActive","type":"bool","internalType":"bool"}],"stateMutability":"view"},{"type":"function","name":"admin","inputs":[],"outputs":[{"name":"","type":"address","internalType":"address"}],"stateMutability":"view"},{"type":"function","name":"approveActor","inputs":[{"name":"_actor","type":"address","internalType":"address"}],"outputs":[],"stateMutability":"nonpayable"},{"type":"function","name":"cancelShipment","inputs":[{"name":"_shipmentId","type":"uint256","internalType":"uint256"}],"outputs":[],"stateMutability":"nonpayable"},{"type":"function","name":"checkpoints","inputs":[{"name":"","type":"uint256","internalType":"uint256"}],"outputs":[{"name":"id","type":"uint256","internalType":"uint256"},{"name":"shipmentId","type":"uint256","internalType":"uint256"},{"name":"actor","type":"address","internalType":"address"},{"name":"location","type":"string","internalType":"string"},{"name":"checkpointType","type":"string","internalType":"string"},{"name":"timestamp","type":"uint256","internalType":"uint256"},{"name":"notes","type":"string","internalType":"string"},{"name":"temperature","type":"int256","internalType":"int256"}],"stateMutability":"view"},{"type":"function","name":"confirmDelivery","inputs":[{"name":"_shipmentId","type":"uint256","internalType":"uint256"}],"outputs":[],"stateMutability":"nonpayable"},{"type":"function","name":"createShipment","inputs":[{"name":"_recipient","type":"address","internalType":"address"},{"name":"_product","type":"string","internalType":"string"},{"name":"_origin","type":"string","internalType":"string"},{"name":"_destination","type":"string","internalType":"string"},{"name":"_requiresColdChain","type":"bool","internalType":"bool"}],"outputs":[{"name":"","type":"uint256","internalType":"uint256"}],"stateMutability":"nonpayable"},{"type":"function","name":"deactivateActor","inputs":[{"name":"_actor","type":"address","internalType":"address"}],"outputs":[],"stateMutability":"nonpayable"},{"type":"function","name":"getActor","inputs":[{"name":"_actor","type":"address","internalType":"address"}],"outputs":[{"name":"","type":"tuple","internalType":"struct LogisticsTracker.Actor","components":[{"name":"actorAddress","type":"address","internalType":"address"},{"name":"name","type":"string","internalType":"string"},{"name":"role","type":"uint8","internalType":"enum LogisticsTracker.ActorRole"},{"name":"location","type":"string","internalType":"string"},{"name":"isActive","type":"bool","internalType":"bool"}]}],"stateMutability":"view"},{"type":"function","name":"getActorShipments","inputs":[{"name":"_actor","type":"address","internalType":"address"}],"outputs":[{"name":"","type":"uint256[]","internalType":"uint256[]"}],"stateMutability":"view"},{"type":"function","name":"getCheckpoint","inputs":[{"name":"_checkpointId","type":"uint256","internalType":"uint256"}],"outputs":[{"name":"","type":"tuple","internalType":"struct LogisticsTracker.Checkpoint","components":[{"name":"id","type":"uint256","internalType":"uint256"},{"name":"shipmentId","type":"uint256","internalType":"uint256"},{"name":"actor","type":"address","internalType":"address"},{"name":"location","type":"string","internalType":"string"},{"name":"checkpointType","type":"string","internalType":"string"},{"name":"timestamp","type":"uint256","internalType":"uint256"},{"name":"notes","type":"string","internalType":"string"},{"name":"temperature","type":"int256","internalType":"int256"}]}],"stateMutability":"view"},{"type":"function","name":"getIncident","inputs":[{"name":"_incidentId","type":"uint256","internalType":"uint256"}],"outputs":[{"name":"","type":"tuple","internalType":"struct LogisticsTracker.Incident","components":[{"name":"id","type":"uint256","internalType":"uint256"},{"name":"shipmentId","type":"uint256","internalType":"uint256"},{"name":"incidentType","type":"uint8","internalType":"enum LogisticsTracker.IncidentType"},{"name":"reporter","type":"address","internalType":"address"},{"name":"description","type":"string","internalType":"string"},{"name":"timestamp","type":"uint256","internalType":"uint256"},{"name":"resolved","type":"bool","internalType":"bool"}]}],"stateMutability":"view"},{"type":"function","name":"getShipment","inputs":[{"name":"_shipmentId","type":"uint256","internalType":"uint256"}],"outputs":[{"name":"","type":"uint256","internalType":"uint256"},{"name":"","type":"address","internalType":"address"},{"name":"","type":"address","internalType":"address"},{"name":"","type":"string","internalType":"string"},{"name":"","type":"string","internalType":"string"},{"name":"","type":"string","internalType":"string"},{"name":"","type":"uint256","internalType":"uint256"},{"name":"","type":"uint256","internalType":"uint256"},{"name":"","type":"uint8","internalType":"enum LogisticsTracker.ShipmentStatus"},{"name":"","type":"bool","internalType":"bool"}],"stateMutability":"view"},{"type":"function","name":"getShipmentCheckpoints","inputs":[{"name":"_shipmentId","type":"uint256","internalType":"uint256"}],"outputs":[{"name":"","type":"tuple[]","internalType":"struct LogisticsTracker.Checkpoint[]","components":[{"name":"id","type":"uint256","internalType":"uint256"},{"name":"shipmentId","type":"uint256","internalType":"uint256"},{"name":"actor","type":"address","internalType":"address"},{"name":"location","type":"string","internalType":"string"},{"name":"checkpointType","type":"string","internalType":"string"},{"name":"timestamp","type":"uint256","internalType":"uint256"},{"name":"notes","type":"string","internalType":"string"},{"name":"temperature","type":"int256","internalType":"int256"}]}],"stateMutability":"view"},{"type":"function","name":"getShipmentIncidents","inputs":[{"name":"_shipmentId","type":"uint256","internalType":"uint256"}],"outputs":[{"name":"","type":"tuple[]","internalType":"struct LogisticsTracker.Incident[]","components":[{"name":"id","type":"uint256","internalType":"uint256"},{"name":"shipmentId","type":"uint256","internalType":"uint256"},{"name":"incidentType","type":"uint8","internalType":"enum LogisticsTracker.IncidentType"},{"name":"reporter","type":"address","internalType":"address"},{"name":"description","type":"string","internalType":"string"},{"name":"timestamp","type":"uint256","internalType":"uint256"},{"name":"resolved","type":"bool","internalType":"bool"}]}],"stateMutability":"view"},{"type":"function","name":"incidents","inputs":[{"name":"","type":"uint256","internalType":"uint256"}],"outputs":[{"name":"id","type":"uint256","internalType":"uint256"},{"name":"shipmentId","type":"uint256","internalType":"uint256"},{"name":"incidentType","type":"uint8","internalType":"enum LogisticsTracker.IncidentType"},{"name":"reporter","type":"address","internalType":"address"},{"name":"description","type":"string","internalType":"string"},{"name":"timestamp","type":"uint256","internalType":"uint256"},{"name":"resolved","type":"bool","internalType":"bool"}],"stateMutability":"view"},{"type":"function","name":"nextCheckpointId","inputs":[],"outputs":[{"name":"","type":"uint256","internalType":"uint256"}],"stateMutability":"view"},{"type":"function","name":"nextIncidentId","inputs":[],"outputs":[{"name":"","type":"uint256","internalType":"uint256"}],"stateMutability":"view"},{"type":"function","name":"nextShipmentId","inputs":[],"outputs":[{"name":"","type":"uint256","internalType":"uint256"}],"stateMutability":"view"},{"type":"function","name":"recordCheckpoint","inputs":[{"name":"_shipmentId","type":"uint256","internalType":"uint256"},{"name":"_location","type":"string","internalType":"string"},{"name":"_checkpointType","type":"string","internalType":"string"},{"name":"_notes","type":"string","internalType":"string"},{"name":"_temperature","type":"int256","internalType":"int256"}],"outputs":[{"name":"","type":"uint256","internalType":"uint256"}],"stateMutability":"nonpayable"},{"type":"function","name":"registerActor","inputs":[{"name":"_name","type":"string","internalType":"string"},{"name":"_role","type":"uint8","internalType":"enum LogisticsTracker.ActorRole"},{"name":"_location","type":"string","internalType":"string"}],"outputs":[],"stateMutability":"nonpayable"},{"type":"function","name":"reportIncident","inputs":[{"name":"_shipmentId","type":"uint256","internalType":"uint256"},{"name":"_incidentType","type":"uint8","internalType":"enum LogisticsTracker.IncidentType"},{"name":"_description","type":"string","internalType":"string"}],"outputs":[{"name":"","type":"uint256","internalType":"uint256"}],"stateMutability":"nonpayable"},{"type":"function","name":"resolveIncident","inputs":[{"name":"_incidentId","type":"uint256","internalType":"uint256"}],"outputs":[],"stateMutability":"nonpayable"},{"type":"function","name":"shipments","inputs":[{"name":"","type":"uint256","internalType":"uint256"}],"outputs":[{"name":"id","type":"uint256","internalType":"uint256"},{"name":"sender","type":"address","internalType":"address"},{"name":"recipient","type":"address","internalType":"address"},{"name":"product","type":"string","internalType":"string"},{"name":"origin","type":"string","internalType":"string"},{"name":"destination","type":"string","internalType":"string"},{"name":"dateCreated","type":"uint256","internalType":"uint256"},{"name":"dateDelivered","type":"uint256","internalType":"uint256"},{"name":"status","type":"uint8","internalType":"enum LogisticsTracker.ShipmentStatus"},{"name":"requiresColdChain","type":"bool","internalType":"bool"}],"stateMutability":"view"},{"type":"function","name":"updateShipmentStatus","inputs":[{"name":"_shipmentId","type":"uint256","internalType":"uint256"},{"name":"_newStatus","type":"uint8","internalType":"enum LogisticsTracker.ShipmentStatus"}],"outputs":[],"stateMutability":"nonpayable"},{"type":"function","name":"verifyTemperatureCompliance","inputs":[{"name":"_shipmentId","type":"uint256","internalType":"uint256"}],"outputs":[{"name":"","type":"bool","internalType":"bool"}],"stateMutability":"view"},{"type":"event","name":"ActorRegistered","inputs":[{"name":"actorAddress","type":"address","indexed":true,"internalType":"address"},{"name":"name","type":"string","indexed":false,"internalType":"string"},{"name":"role","type":"uint8","indexed":false,"internalType":"enum LogisticsTracker.ActorRole"}],"anonymous":false},{"type":"event","name":"ActorStatusChanged","inputs":[{"name":"actorAddress","type":"address","indexed":true,"internalType":"address"},{"name":"isActive","type":"bool","indexed":false,"internalType":"bool"}],"anonymous":false},{"type":"event","name":"CheckpointRecorded","inputs":[{"name":"checkpointId","type":"uint256","indexed":true,"internalType":"uint256"},{"name":"shipmentId","type":"uint256","indexed":true,"internalType":"uint256"},{"name":"location","type":"string","indexed":false,"internalType":"string"},{"name":"actor","type":"address","indexed":false,"internalType":"address"}],"anonymous":false},{"type":"event","name":"DeliveryConfirmed","inputs":[{"name":"shipmentId","type":"uint256","indexed":true,"internalType":"uint256"},{"name":"recipient","type":"address","indexed":true,"internalType":"address"},{"name":"timestamp","type":"uint256","indexed":false,"internalType":"uint256"}],"anonymous":false},{"type":"event","name":"IncidentReported","inputs":[{"name":"incidentId","type":"uint256","indexed":true,"internalType":"uint256"},{"name":"shipmentId","type":"uint256","indexed":true,"internalType":"uint256"},{"name":"incidentType","type":"uint8","indexed":false,"internalType":"enum LogisticsTracker.IncidentType"}],"anonymous":false},{"type":"event","name":"IncidentResolved","inputs":[{"name":"incidentId","type":"uint256","indexed":true,"internalType":"uint256"}],"anonymous":false},{"type":"event","name":"ShipmentCreated","inputs":[{"name":"shipmentId","type":"uint256","indexed":true,"internalType":"uint256"},{"name":"sender","type":"address","indexed":true,"internalType":"address"},{"name":"recipient","type":"address","indexed":true,"internalType":"address"},{"name":"product","type":"string","indexed":false,"internalType":"string"}],"anonymous":false},{"type":"event","name":"ShipmentStatusChanged","inputs":[{"name":"shipmentId","type":"uint256","indexed":true,"internalType":"uint256"},{"name":"newStatus","type":"uint8","indexed":false,"internalType":"enum LogisticsTracker.ShipmentStatus"}],"anonymous":false}],"bytecode":{"object":"0x6080604052600180556001600255600160035534801561001d575f80fd5b505f80546001600160a01b031916331790556130138061003c5f395ff3fe608060405234801561000f575f80fd5b5060043610610187575f3560e01c80637faa7bc7116100d9578063c4edcf8b11610093578063eaa66a3c1161006e578063eaa66a3c146103c3578063f851a440146103e7578063fc43669514610411578063fd84cb9714610424575f80fd5b8063c4edcf8b1461038a578063e570c3671461039d578063e7dc3188146103b0575f80fd5b80637faa7bc7146102de5780639578615e146102f1578063a6c6a8f314610311578063af56a42814610337578063b8a242521461035a578063b9a3a68c14610381575f80fd5b80634138d167116101445780635f19f4f51161011f5780635f19f4f51461026b57806372f2f93a1461028b578063733e28aa146102ab5780637defa920146102cb575f80fd5b80634138d16714610223578063475b6f98146102435780634ffe6ae214610256575f80fd5b8063092b37401461018b5780630fd19668146101bd57806320fc4881146101d4578063229ec452146101f45780632ac08a93146101fd57806333401ee114610210575b5f80fd5b61019e6101993660046125d4565b610437565b6040516101b49a99989796959493929190612656565b60405180910390f35b6101c660035481565b6040519081526020016101b4565b6101e76101e23660046125d4565b610664565b6040516101b49190612775565b6101c660025481565b61019e61020b3660046125d4565b61087e565b6101c661021e366004612824565b610a72565b6102366102313660046128d2565b610c4e565b6040516101b491906128fb565b6101c6610251366004612971565b610e1a565b6102696102643660046125d4565b611029565b005b61027e6102793660046125d4565b611121565b6040516101b49190612a1c565b61029e6102993660046128d2565b61140a565b6040516101b49190612a7c565b6102be6102b93660046125d4565b611473565b6040516101b49190612b3e565b6102696102d9366004612b91565b611660565b6102696102ec3660046125d4565b611788565b6103046102ff3660046125d4565b6118ba565b6040516101b49190612bc2565b61032461031f3660046125d4565b6119ec565b6040516101b49796959493929190612bd4565b61034a6103453660046125d4565b611ac0565b60405190151581526020016101b4565b61036d6103683660046125d4565b611b4e565b6040516101b4989796959493929190612c2b565b6101c660015481565b610269610398366004612ca0565b611d2c565b6101c66103ab366004612d16565b611ee1565b6102696103be3660046128d2565b6120ed565b6103d66103d13660046128d2565b6121e9565b6040516101b4959493929190612d64565b5f546103f9906001600160a01b031681565b6040516001600160a01b0390911681526020016101b4565b61026961041f3660046128d2565b612339565b6102696104323660046125d4565b6123cf565b5f8181526004602081905260408220805460018201546002830154600684015460078501546008860154600b8701546003880180548b9a8b9a60609a8b9a8b9a8e9a8b9a8b9a8b9a969995986001600160a01b03958616989490951696938a019460058b019460ff92831692169087906104b090612dbb565b80601f01602080910402602001604051908101604052809291908181526020018280546104dc90612dbb565b80156105275780601f106104fe57610100808354040283529160200191610527565b820191905f5260205f20905b81548152906001019060200180831161050a57829003601f168201915b5050505050965085805461053a90612dbb565b80601f016020809104026020016040519081016040528092919081815260200182805461056690612dbb565b80156105b15780601f10610588576101008083540402835291602001916105b1565b820191905f5260205f20905b81548152906001019060200180831161059457829003601f168201915b505050505095508480546105c490612dbb565b80601f01602080910402602001604051908101604052809291908181526020018280546105f090612dbb565b801561063b5780601f106106125761010080835404028352916020019161063b565b820191905f5260205f20905b81548152906001019060200180831161061e57829003601f168201915b505050505094509a509a509a509a509a509a509a509a509a509a50509193959799509193959799565b61066c612541565b5f828152600560209081526040918290208251610100810184528154815260018201549281019290925260028101546001600160a01b0316928201929092526003820180549192916060840191906106c390612dbb565b80601f01602080910402602001604051908101604052809291908181526020018280546106ef90612dbb565b801561073a5780601f106107115761010080835404028352916020019161073a565b820191905f5260205f20905b81548152906001019060200180831161071d57829003601f168201915b5050505050815260200160048201805461075390612dbb565b80601f016020809104026020016040519081016040528092919081815260200182805461077f90612dbb565b80156107ca5780601f106107a1576101008083540402835291602001916107ca565b820191905f5260205f20905b8154815290600101906020018083116107ad57829003601f168201915b50505050508152602001600582015481526020016006820180546107ed90612dbb565b80601f016020809104026020016040519081016040528092919081815260200182805461081990612dbb565b80156108645780601f1061083b57610100808354040283529160200191610864565b820191905f5260205f20905b81548152906001019060200180831161084757829003601f168201915b505050505081526020016007820154815250509050919050565b60046020525f9081526040902080546001820154600283015460038401805493946001600160a01b039384169493909216926108b990612dbb565b80601f01602080910402602001604051908101604052809291908181526020018280546108e590612dbb565b80156109305780601f1061090757610100808354040283529160200191610930565b820191905f5260205f20905b81548152906001019060200180831161091357829003601f168201915b50505050509080600401805461094590612dbb565b80601f016020809104026020016040519081016040528092919081815260200182805461097190612dbb565b80156109bc5780601f10610993576101008083540402835291602001916109bc565b820191905f5260205f20905b81548152906001019060200180831161099f57829003601f168201915b5050505050908060050180546109d190612dbb565b80601f01602080910402602001604051908101604052809291908181526020018280546109fd90612dbb565b8015610a485780601f10610a1f57610100808354040283529160200191610a48565b820191905f5260205f20905b815481529060010190602001808311610a2b57829003601f168201915b505050600684015460078501546008860154600b909601549495919490935060ff9182169250168a565b335f9081526007602052604081206004015460ff16610aac5760405162461bcd60e51b8152600401610aa390612df3565b60405180910390fd5b5f868152600460205260408120549003610afd5760405162461bcd60e51b815260206004820152601260248201527114da1a5c1b595b9d081b9bdd08199bdd5b9960721b6044820152606401610aa3565b600280545f9182610b0d83612e1d565b90915550604080516101008101825282815260208082018b815233838501908152606084018c8152608085018c90524260a086015260c085018b905260e085018a90525f878152600590945294909220835181559051600182015590516002820180546001600160a01b0319166001600160a01b039092169190911790559151929350916003820190610ba09082612e8f565b5060808201516004820190610bb59082612e8f565b5060a0820151600582015560c08201516006820190610bd49082612e8f565b5060e091909101516007909101555f8781526004602090815260408083206009018054600181018255908452919092200182905551879082907f866de744a1d30941b1bccb4355cfb9dacfa65296f3ab651a0d4dce76bf988a7190610c3c908a903390612f4b565b60405180910390a39695505050505050565b610c7e6040805160a0810182525f8082526060602083015290918201908152606060208201525f60409091015290565b6001600160a01b038083165f90815260076020908152604091829020825160a081019093528054909316825260018301805492939291840191610cc090612dbb565b80601f0160208091040260200160405190810160405280929190818152602001828054610cec90612dbb565b8015610d375780601f10610d0e57610100808354040283529160200191610d37565b820191905f5260205f20905b815481529060010190602001808311610d1a57829003601f168201915b5050509183525050600282015460209091019060ff166005811115610d5e57610d5e61262e565b6005811115610d6f57610d6f61262e565b8152602001600382018054610d8390612dbb565b80601f0160208091040260200160405190810160405280929190818152602001828054610daf90612dbb565b8015610dfa5780601f10610dd157610100808354040283529160200191610dfa565b820191905f5260205f20905b815481529060010190602001808311610ddd57829003601f168201915b50505091835250506004919091015460ff16151560209091015292915050565b335f9081526007602052604081206004015460ff16610e4b5760405162461bcd60e51b8152600401610aa390612df3565b6001335f9081526007602052604090206002015460ff166005811115610e7357610e7361262e565b14610eb15760405162461bcd60e51b815260206004820152600e60248201526d26bab9ba1031329029b2b73232b960911b6044820152606401610aa3565b6001600160a01b038616610efb5760405162461bcd60e51b8152602060048201526011602482015270125b9d985b1a59081c9958da5c1a595b9d607a1b6044820152606401610aa3565b600180545f9182610f0b83612e1d565b909155505f818152600460205260409020818155600181018054336001600160a01b0319918216179091556002820180549091166001600160a01b038b1617905590915060038101610f5d8882612e8f565b5060048101610f6c8782612e8f565b5060058101610f7b8682612e8f565b504260068201556008808201805460ff19908116909155600b83018054909116861515179055335f81815260209283526040808220805460018181018355918452858420018790556001600160a01b038d16808452828420805492830181558452949092209091018590555184907f8fb6b855d6cbdf201f2fcaadbf8c38d36168ff7d2ca865cb2599abcd5a060e8f90611016908c90612f74565b60405180910390a4509695505050505050565b5f818152600660205260409020600581015460ff161561107e5760405162461bcd60e51b815260206004820152601060248201526f105b1c9958591e481c995cdbdb1d995960821b6044820152606401610aa3565b5f546001600160a01b03163314806110a75750600281015461010090046001600160a01b031633145b6110e45760405162461bcd60e51b815260206004820152600e60248201526d139bdd08185d5d1a1bdc9a5e995960921b6044820152606401610aa3565b60058101805460ff1916600117905560405182907ff83ae0ade2d9004bc0030405bdd3336f9d9b97530bcf44cce99ce02c95641b77905f90a25050565b5f81815260046020526040812060090180546060929067ffffffffffffffff81111561114f5761114f612787565b60405190808252806020026020018201604052801561118857816020015b611175612541565b81526020019060019003908161116d5790505b5090505f5b82548110156114025760055f8483815481106111ab576111ab612f86565b905f5260205f20015481526020019081526020015f20604051806101000160405290815f820154815260200160018201548152602001600282015f9054906101000a90046001600160a01b03166001600160a01b03166001600160a01b0316815260200160038201805461121e90612dbb565b80601f016020809104026020016040519081016040528092919081815260200182805461124a90612dbb565b80156112955780601f1061126c57610100808354040283529160200191611295565b820191905f5260205f20905b81548152906001019060200180831161127857829003601f168201915b505050505081526020016004820180546112ae90612dbb565b80601f01602080910402602001604051908101604052809291908181526020018280546112da90612dbb565b80156113255780601f106112fc57610100808354040283529160200191611325565b820191905f5260205f20905b81548152906001019060200180831161130857829003601f168201915b505050505081526020016005820154815260200160068201805461134890612dbb565b80601f016020809104026020016040519081016040528092919081815260200182805461137490612dbb565b80156113bf5780601f10611396576101008083540402835291602001916113bf565b820191905f5260205f20905b8154815290600101906020018083116113a257829003601f168201915b505050505081526020016007820154815250508282815181106113e4576113e4612f86565b602002602001018190525080806113fa90612e1d565b91505061118d565b509392505050565b6001600160a01b0381165f9081526008602090815260409182902080548351818402810184019094528084526060939283018282801561146757602002820191905f5260205f20905b815481526020019060010190808311611453575b50505050509050919050565b5f818152600460205260408120600a0180546060929067ffffffffffffffff8111156114a1576114a1612787565b6040519080825280602002602001820160405280156114da57816020015b6114c761258a565b8152602001906001900390816114bf5790505b5090505f5b82548110156114025760065f8483815481106114fd576114fd612f86565b905f5260205f20015481526020019081526020015f206040518060e00160405290815f820154815260200160018201548152602001600282015f9054906101000a900460ff1660048111156115545761155461262e565b60048111156115655761156561262e565b8152600282015461010090046001600160a01b0316602082015260038201805460409092019161159490612dbb565b80601f01602080910402602001604051908101604052809291908181526020018280546115c090612dbb565b801561160b5780601f106115e25761010080835404028352916020019161160b565b820191905f5260205f20905b8154815290600101906020018083116115ee57829003601f168201915b50505091835250506004820154602082015260059091015460ff161515604090910152825183908390811061164257611642612f86565b6020026020010181905250808061165890612e1d565b9150506114df565b335f9081526007602052604090206004015460ff166116915760405162461bcd60e51b8152600401610aa390612df3565b5f8281526004602081905260409091206008015460ff16908160068111156116bb576116bb61262e565b141580156116db575060068160068111156116d8576116d861262e565b14155b6117195760405162461bcd60e51b815260206004820152600f60248201526e5465726d696e616c2073746174757360881b6044820152606401610aa3565b5f838152600460205260409020600801805483919060ff191660018360068111156117465761174661262e565b0217905550827f7c1c93f72f29b8a1fc6fc85eed990d133b1ffac80c962b521abb12f38f2ff9af8360405161177b9190612f9a565b60405180910390a2505050565b335f9081526007602052604090206004015460ff166117b95760405162461bcd60e51b8152600401610aa390612df3565b5f81815260046020526040902060018101546001600160a01b0316331461180f5760405162461bcd60e51b815260206004820152600a6024820152692737ba1039b2b73232b960b11b6044820152606401610aa3565b6004600882015460ff16600681111561182a5761182a61262e565b0361186b5760405162461bcd60e51b8152602060048201526011602482015270105b1c9958591e4819195b1a5d995c9959607a1b6044820152606401610aa3565b60088101805460ff1916600690811790915560405183917f7c1c93f72f29b8a1fc6fc85eed990d133b1ffac80c962b521abb12f38f2ff9af916118ae9190612f9a565b60405180910390a25050565b6118c261258a565b5f82815260066020908152604091829020825160e081018452815481526001820154928101929092526002810154919290919083019060ff16600481111561190c5761190c61262e565b600481111561191d5761191d61262e565b8152600282015461010090046001600160a01b0316602082015260038201805460409092019161194c90612dbb565b80601f016020809104026020016040519081016040528092919081815260200182805461197890612dbb565b80156119c35780601f1061199a576101008083540402835291602001916119c3565b820191905f5260205f20905b8154815290600101906020018083116119a657829003601f168201915b50505091835250506004820154602082015260059091015460ff16151560409091015292915050565b60066020525f908152604090208054600182015460028301546003840180549394929360ff8316936101009093046001600160a01b0316929190611a2f90612dbb565b80601f0160208091040260200160405190810160405280929190818152602001828054611a5b90612dbb565b8015611aa65780601f10611a7d57610100808354040283529160200191611aa6565b820191905f5260205f20905b815481529060010190602001808311611a8957829003601f168201915b50505050600483015460059093015491929160ff16905087565b5f818152600460205260408120600a01815b8154811015611b4457600360065f848481548110611af257611af2612f86565b5f918252602080832090910154835282019290925260400190206002015460ff166004811115611b2457611b2461262e565b03611b3257505f9392505050565b80611b3c81612e1d565b915050611ad2565b5060019392505050565b60056020525f90815260409020805460018201546002830154600384018054939492936001600160a01b039092169291611b8790612dbb565b80601f0160208091040260200160405190810160405280929190818152602001828054611bb390612dbb565b8015611bfe5780601f10611bd557610100808354040283529160200191611bfe565b820191905f5260205f20905b815481529060010190602001808311611be157829003601f168201915b505050505090806004018054611c1390612dbb565b80601f0160208091040260200160405190810160405280929190818152602001828054611c3f90612dbb565b8015611c8a5780601f10611c6157610100808354040283529160200191611c8a565b820191905f5260205f20905b815481529060010190602001808311611c6d57829003601f168201915b505050505090806005015490806006018054611ca590612dbb565b80601f0160208091040260200160405190810160405280929190818152602001828054611cd190612dbb565b8015611d1c5780601f10611cf357610100808354040283529160200191611d1c565b820191905f5260205f20905b815481529060010190602001808311611cff57829003601f168201915b5050505050908060070154905088565b5f826005811115611d3f57611d3f61262e565b03611d7b5760405162461bcd60e51b815260206004820152600c60248201526b496e76616c696420726f6c6560a01b6044820152606401610aa3565b335f908152600760205260409020546001600160a01b031615611dd55760405162461bcd60e51b8152602060048201526012602482015271105b1c9958591e481c9959da5cdd195c995960721b6044820152606401610aa3565b6040518060a00160405280336001600160a01b03168152602001848152602001836005811115611e0757611e0761262e565b815260208082018490525f60409283018190523381526007825291909120825181546001600160a01b0319166001600160a01b03909116178155908201516001820190611e549082612e8f565b50604082015160028201805460ff19166001836005811115611e7857611e7861262e565b021790555060608201516003820190611e919082612e8f565b50608091909101516004909101805460ff191691151591909117905560405133907fc9a31de765abe70445345802bee3c96554ca063ab257e3888d498accb859fabc9061177b9086908690612fae565b335f9081526007602052604081206004015460ff16611f125760405162461bcd60e51b8152600401610aa390612df3565b5f848152600460205260408120549003611f635760405162461bcd60e51b815260206004820152601260248201527114da1a5c1b595b9d081b9bdd08199bdd5b9960721b6044820152606401610aa3565b600380545f9182611f7383612e1d565b9190505590506040518060e00160405280828152602001868152602001856004811115611fa257611fa261262e565b8152602001336001600160a01b031681526020018481526020014281526020015f151581525060065f8381526020019081526020015f205f820151815f0155602082015181600101556040820151816002015f6101000a81548160ff021916908360048111156120145761201461262e565b021790555060608201516002820180546001600160a01b0390921661010002610100600160a81b03199092169190911790556080820151600382019061205a9082612e8f565b5060a082015160048281019190915560c0909201516005909101805460ff19169115159190911790555f86815260209182526040808220600a0180546001810182559083529290912090910182905551859082907fc2c9d0fa5caecea68b9ec6aca764014b01764f779d8a510f0d0d6796b76b7c83906120db908890612fcf565b60405180910390a390505b9392505050565b5f546001600160a01b031633146121325760405162461bcd60e51b81526020600482015260096024820152682737ba1030b236b4b760b91b6044820152606401610aa3565b6001600160a01b038181165f90815260076020526040902054166121895760405162461bcd60e51b815260206004820152600e60248201526d139bdd081c9959da5cdd195c995960921b6044820152606401610aa3565b6001600160a01b0381165f81815260076020908152604091829020600401805460ff1916600190811790915591519182527f7d434f3bffe7db5f776c1c2b3b22e492788bdfbd071e9aa176f096970ea8893391015b60405180910390a250565b60076020525f9081526040902080546001820180546001600160a01b03909216929161221490612dbb565b80601f016020809104026020016040519081016040528092919081815260200182805461224090612dbb565b801561228b5780601f106122625761010080835404028352916020019161228b565b820191905f5260205f20905b81548152906001019060200180831161226e57829003601f168201915b5050506002840154600385018054949560ff9092169491935091506122af90612dbb565b80601f01602080910402602001604051908101604052809291908181526020018280546122db90612dbb565b80156123265780601f106122fd57610100808354040283529160200191612326565b820191905f5260205f20905b81548152906001019060200180831161230957829003601f168201915b5050506004909301549192505060ff1685565b5f546001600160a01b0316331461237e5760405162461bcd60e51b81526020600482015260096024820152682737ba1030b236b4b760b91b6044820152606401610aa3565b6001600160a01b0381165f818152600760209081526040808320600401805460ff19169055519182527f7d434f3bffe7db5f776c1c2b3b22e492788bdfbd071e9aa176f096970ea8893391016121de565b335f9081526007602052604090206004015460ff166124005760405162461bcd60e51b8152600401610aa390612df3565b5f81815260046020526040902060028101546001600160a01b031633146124595760405162461bcd60e51b815260206004820152600d60248201526c139bdd081c9958da5c1a595b9d609a1b6044820152606401610aa3565b6004600882015460ff1660068111156124745761247461262e565b036124b55760405162461bcd60e51b8152602060048201526011602482015270105b1c9958591e4819195b1a5d995c9959607a1b6044820152606401610aa3565b60088101805460ff1916600490811790915542600783015560405183917f7c1c93f72f29b8a1fc6fc85eed990d133b1ffac80c962b521abb12f38f2ff9af916124fe9190612f9a565b60405180910390a2604051428152339083907f2f4a952729db32131cb3d658cc231127e0ce7e50f83508ece9a49c985f2384d09060200160405180910390a35050565b6040518061010001604052805f81526020015f81526020015f6001600160a01b0316815260200160608152602001606081526020015f8152602001606081526020015f81525090565b6040518060e001604052805f81526020015f81526020015f60048111156125b3576125b361262e565b81525f60208201819052606060408301819052820181905260809091015290565b5f602082840312156125e4575f80fd5b5035919050565b5f81518084525f5b8181101561260f576020818501810151868301820152016125f3565b505f602082860101526020601f19601f83011685010191505092915050565b634e487b7160e01b5f52602160045260245ffd5b600781106126525761265261262e565b9052565b8a81526001600160a01b038a8116602083015289166040820152610140606082018190525f906126888382018b6125eb565b9050828103608084015261269c818a6125eb565b905082810360a08401526126b081896125eb565b9150508560c08301528460e08301526126cd610100830185612642565b8215156101208301529b9a5050505050505050505050565b5f610100825184526020830151602085015260018060a01b0360408401511660408501526060830151816060860152612720828601826125eb565b9150506080830151848203608086015261273a82826125eb565b91505060a083015160a085015260c083015184820360c086015261275e82826125eb565b91505060e083015160e08501528091505092915050565b602081525f6120e660208301846126e5565b634e487b7160e01b5f52604160045260245ffd5b5f82601f8301126127aa575f80fd5b813567ffffffffffffffff808211156127c5576127c5612787565b604051601f8301601f19908116603f011681019082821181831017156127ed576127ed612787565b81604052838152866020858801011115612805575f80fd5b836020870160208301375f602085830101528094505050505092915050565b5f805f805f60a08688031215612838575f80fd5b85359450602086013567ffffffffffffffff80821115612856575f80fd5b61286289838a0161279b565b95506040880135915080821115612877575f80fd5b61288389838a0161279b565b94506060880135915080821115612898575f80fd5b506128a58882890161279b565b95989497509295608001359392505050565b80356001600160a01b03811681146128cd575f80fd5b919050565b5f602082840312156128e2575f80fd5b6120e6826128b7565b600681106126525761265261262e565b602080825282516001600160a01b03168282015282015160a060408301525f9061292860c08401826125eb565b9050604084015161293c60608501826128eb565b506060840151838203601f1901608085015261295882826125eb565b9150506080840151151560a08401528091505092915050565b5f805f805f60a08688031215612985575f80fd5b61298e866128b7565b9450602086013567ffffffffffffffff808211156129aa575f80fd5b6129b689838a0161279b565b955060408801359150808211156129cb575f80fd5b6129d789838a0161279b565b945060608801359150808211156129ec575f80fd5b506129f98882890161279b565b92505060808601358015158114612a0e575f80fd5b809150509295509295909350565b5f602080830181845280855180835260408601915060408160051b87010192508387015f5b82811015612a6f57603f19888603018452612a5d8583516126e5565b94509285019290850190600101612a41565b5092979650505050505050565b602080825282518282018190525f9190848201906040850190845b81811015612ab357835183529284019291840191600101612a97565b50909695505050505050565b600581106126525761265261262e565b80518252602081015160208301525f6040820151612af06040850182612abf565b5060018060a01b036060830151166060840152608082015160e06080850152612b1c60e08501826125eb565b905060a083015160a085015260c0830151151560c08501528091505092915050565b5f602080830181845280855180835260408601915060408160051b87010192508387015f5b82811015612a6f57603f19888603018452612b7f858351612acf565b94509285019290850190600101612b63565b5f8060408385031215612ba2575f80fd5b82359150602083013560078110612bb7575f80fd5b809150509250929050565b602081525f6120e66020830184612acf565b878152866020820152612bea6040820187612abf565b6001600160a01b038516606082015260e0608082018190525f90612c10908301866125eb565b60a08301949094525090151560c09091015295945050505050565b888152602081018890526001600160a01b0387166040820152610100606082018190525f90612c5c838201896125eb565b90508281036080840152612c7081886125eb565b90508560a084015282810360c0840152612c8a81866125eb565b9150508260e08301529998505050505050505050565b5f805f60608486031215612cb2575f80fd5b833567ffffffffffffffff80821115612cc9575f80fd5b612cd58783880161279b565b94506020860135915060068210612cea575f80fd5b90925060408501359080821115612cff575f80fd5b50612d0c8682870161279b565b9150509250925092565b5f805f60608486031215612d28575f80fd5b83359250602084013560058110612d3d575f80fd5b9150604084013567ffffffffffffffff811115612d58575f80fd5b612d0c8682870161279b565b6001600160a01b038616815260a0602082018190525f90612d87908301876125eb565b612d9460408401876128eb565b8281036060840152612da681866125eb565b91505082151560808301529695505050505050565b600181811c90821680612dcf57607f821691505b602082108103612ded57634e487b7160e01b5f52602260045260245ffd5b50919050565b60208082526010908201526f4163746f72206e6f742061637469766560801b604082015260600190565b5f60018201612e3a57634e487b7160e01b5f52601160045260245ffd5b5060010190565b601f821115612e8a575f81815260208120601f850160051c81016020861015612e675750805b601f850160051c820191505b81811015612e8657828155600101612e73565b5050505b505050565b815167ffffffffffffffff811115612ea957612ea9612787565b612ebd81612eb78454612dbb565b84612e41565b602080601f831160018114612ef0575f8415612ed95750858301515b5f19600386901b1c1916600185901b178555612e86565b5f85815260208120601f198616915b82811015612f1e57888601518255948401946001909101908401612eff565b5085821015612f3b57878501515f19600388901b60f8161c191681555b5050505050600190811b01905550565b604081525f612f5d60408301856125eb565b905060018060a01b03831660208301529392505050565b602081525f6120e660208301846125eb565b634e487b7160e01b5f52603260045260245ffd5b60208101612fa88284612642565b92915050565b604081525f612fc060408301856125eb565b90506120e660208301846128eb565b60208101612fa88284612abf56fea2646970667358221220510d07c49b48b375eab8c1c742296e2de5856c4a22683637699930373e60abc264736f6c63430008140033","linkReferences":{}},"methodIdentifiers":{"actors(address)":"eaa66a3c","admin()":"f851a440","approveActor(address)":"e7dc3188","cancelShipment(uint256)":"7faa7bc7","checkpoints(uint256)":"b8a24252","confirmDelivery(uint256)":"fd84cb97","createShipment(address,string,string,string,bool)":"475b6f98","deactivateActor(address)":"fc436695","getActor(address)":"4138d167","getActorShipments(address)":"72f2f93a","getCheckpoint(uint256)":"20fc4881","getIncident(uint256)":"9578615e","getShipment(uint256)":"092b3740","getShipmentCheckpoints(uint256)":"5f19f4f5","getShipmentIncidents(uint256)":"733e28aa","incidents(uint256)":"a6c6a8f3","nextCheckpointId()":"229ec452","nextIncidentId()":"0fd19668","nextShipmentId()":"b9a3a68c","recordCheckpoint(uint256,string,string,string,int256)":"33401ee1","registerActor(string,uint8,string)":"c4edcf8b","reportIncident(uint256,uint8,string)":"e570c367","resolveIncident(uint256)":"4ffe6ae2","shipments(uint256)":"2ac08a93","updateShipmentStatus(uint256,uint8)":"7defa920","verifyTemperatureCompliance(uint256)":"af56a428"},"id":21}