{
  "abi": [
    {
      "type": "constructor",
      "inputs": [],
      "stateMutability": "nonpayable"
    },
    {
      "type": "function",
      "name": "actors",
      "inputs": [
        {
          "name": "",
          "type": "address",
          "internalType": "address"
        }
      ],
      "outputs": [
        {
          "name": "actorAddress",
          "type": "address",
          "internalType": "address"
        },
        {
          "name": "name",
          "type": "string",
          "internalType": "string"
        },
        {
          "name": "role",
          "type": "uint8",
          "internalType": "enum LogisticsTracker.ActorRole"
        },
        {
          "name": "location",
          "type": "string",
          "internalType": "string"
        },
        {
          "name": "isActive",
          "type": "bool",
          "internalType": "bool"
        }
      ],
      "stateMutability": "view"
    },
    {
      "type": "function",
      "name": "admin",
      "inputs": [],
      "outputs": [
        {
          "name": "",
          "type": "address",
          "internalType": "address"
        }
      ],
      "stateMutability": "view"
    },
    {
      "type": "function",
      "name": "approveActor",
      "inputs": [
        {
          "name": "_actor",
          "type": "address",
          "internalType": "address"
        }
      ],
      "outputs": [],
      "stateMutability": "nonpayable"
    },
    {
      "type": "function",
      "name": "cancelShipment",
      "inputs": [
        {
          "name": "_shipmentId",
          "type": "uint256",
          "internalType": "uint256"
        }
      ],
      "outputs": [],
      "stateMutability": "nonpayable"
    },
    {
      "type": "function",
      "name": "checkpoints",
      "inputs": [
        {
          "name": "",
          "type": "uint256",
          "internalType": "uint256"
        }
      ],
      "outputs": [
        {
          "name": "id",
          "type": "uint256",
          "internalType": "uint256"
        },
        {
          "name": "shipmentId",
          "type": "uint256",
          "internalType": "uint256"
        },
        {
          "name": "actor",
          "type": "address",
          "internalType": "address"
        },
        {
          "name": "location",
          "type": "string",
          "internalType": "string"
        },
        {
          "name": "checkpointType",
          "type": "string",
          "internalType": "string"
        },
        {
          "name": "timestamp",
          "type": "uint256",
          "internalType": "uint256"
        },
        {
          "name": "notes",
          "type": "string",
          "internalType": "string"
        },
        {
          "name": "temperature",
          "type": "int256",
          "internalType": "int256"
        }
      ],
      "stateMutability": "view"
    },
    {
      "type": "function",
      "name": "confirmDelivery",
      "inputs": [
        {
          "name": "_shipmentId",
          "type": "uint256",
          "internalType": "uint256"
        }
      ],
      "outputs": [],
      "stateMutability": "nonpayable"
    },
    {
      "type": "function",
      "name": "createShipment",
      "inputs": [
        {
          "name": "_recipient",
          "type": "address",
          "internalType": "address"
        },
        {
          "name": "_product",
          "type": "string",
          "internalType": "string"
        },
        {
          "name": "_origin",
          "type": "string",
          "internalType": "string"
        },
        {
          "name": "_destination",
          "type": "string",
          "internalType": "string"
        },
        {
          "name": "_requiresColdChain",
          "type": "bool",
          "internalType": "bool"
        }
      ],
      "outputs": [
        {
          "name": "",
          "type": "uint256",
          "internalType": "uint256"
        }
      ],
      "stateMutability": "nonpayable"
    },
    {
      "type": "function",
      "name": "deactivateActor",
      "inputs": [
        {
          "name": "_actor",
          "type": "address",
          "internalType": "address"
        }
      ],
      "outputs": [],
      "stateMutability": "nonpayable"
    },
    {
      "type": "function",
      "name": "getActor",
      "inputs": [
        {
          "name": "_actor",
          "type": "address",
          "internalType": "address"
        }
      ],
      "outputs": [
        {
          "name": "",
          "type": "tuple",
          "internalType": "struct LogisticsTracker.Actor",
          "components": [
            {
              "name": "actorAddress",
              "type": "address",
              "internalType": "address"
            },
            {
              "name": "name",
              "type": "string",
              "internalType": "string"
            },
            {
              "name": "role",
              "type": "uint8",
              "internalType": "enum LogisticsTracker.ActorRole"
            },
            {
              "name": "location",
              "type": "string",
              "internalType": "string"
            },
            {
              "name": "isActive",
              "type": "bool",
              "internalType": "bool"
            }
          ]
        }
      ],
      "stateMutability": "view"
    },
    {
      "type": "function",
      "name": "getActorShipments",
      "inputs": [
        {
          "name": "_actor",
          "type": "address",
          "internalType": "address"
        }
      ],
      "outputs": [
        {
          "name": "",
          "type": "uint256[]",
          "internalType": "uint256[]"
        }
      ],
      "stateMutability": "view"
    },
    {
      "type": "function",
      "name": "getCheckpoint",
      "inputs": [
        {
          "name": "_checkpointId",
          "type": "uint256",
          "internalType": "uint256"
        }
      ],
      "outputs": [
        {
          "name": "",
          "type": "tuple",
          "internalType": "struct LogisticsTracker.Checkpoint",
          "components": [
            {
              "name": "id",
              "type": "uint256",
              "internalType": "uint256"
            },
            {
              "name": "shipmentId",
              "type": "uint256",
              "internalType": "uint256"
            },
            {
              "name": "actor",
              "type": "address",
              "internalType": "address"
            },
            {
              "name": "location",
              "type": "string",
              "internalType": "string"
            },
            {
              "name": "checkpointType",
              "type": "string",
              "internalType": "string"
            },
            {
              "name": "timestamp",
              "type": "uint256",
              "internalType": "uint256"
            },
            {
              "name": "notes",
              "type": "string",
              "internalType": "string"
            },
            {
              "name": "temperature",
              "type": "int256",
              "internalType": "int256"
            }
          ]
        }
      ],
      "stateMutability": "view"
    },
    {
      "type": "function",
      "name": "getIncident",
      "inputs": [
        {
          "name": "_incidentId",
          "type": "uint256",
          "internalType": "uint256"
        }
      ],
      "outputs": [
        {
          "name": "",
          "type": "tuple",
          "internalType": "struct LogisticsTracker.Incident",
          "components": [
            {
              "name": "id",
              "type": "uint256",
              "internalType": "uint256"
            },
            {
              "name": "shipmentId",
              "type": "uint256",
              "internalType": "uint256"
            },
            {
              "name": "incidentType",
              "type": "uint8",
              "internalType": "enum LogisticsTracker.IncidentType"
            },
            {
              "name": "reporter",
              "type": "address",
              "internalType": "address"
            },
            {
              "name": "description",
              "type": "string",
              "internalType": "string"
            },
            {
              "name": "timestamp",
              "type": "uint256",
              "internalType": "uint256"
            },
            {
              "name": "resolved",
              "type": "bool",
              "internalType": "bool"
            },
            {
              "name": "resolutionNote",
              "type": "string",
              "internalType": "string"
            }
          ]
        }
      ],
      "stateMutability": "view"
    },
    {
      "type": "function",
      "name": "getShipment",
      "inputs": [
        {
          "name": "_shipmentId",
          "type": "uint256",
          "internalType": "uint256"
        }
      ],
      "outputs": [
        {
          "name": "",
          "type": "uint256",
          "internalType": "uint256"
        },
        {
          "name": "",
          "type": "address",
          "internalType": "address"
        },
        {
          "name": "",
          "type": "address",
          "internalType": "address"
        },
        {
          "name": "",
          "type": "string",
          "internalType": "string"
        },
        {
          "name": "",
          "type": "string",
          "internalType": "string"
        },
        {
          "name": "",
          "type": "string",
          "internalType": "string"
        },
        {
          "name": "",
          "type": "uint256",
          "internalType": "uint256"
        },
        {
          "name": "",
          "type": "uint256",
          "internalType": "uint256"
        },
        {
          "name": "",
          "type": "uint8",
          "internalType": "enum LogisticsTracker.ShipmentStatus"
        },
        {
          "name": "",
          "type": "bool",
          "internalType": "bool"
        }
      ],
      "stateMutability": "view"
    },
    {
      "type": "function",
      "name": "getShipmentCheckpoints",
      "inputs": [
        {
          "name": "_shipmentId",
          "type": "uint256",
          "internalType": "uint256"
        }
      ],
      "outputs": [
        {
          "name": "",
          "type": "tuple[]",
          "internalType": "struct LogisticsTracker.Checkpoint[]",
          "components": [
            {
              "name": "id",
              "type": "uint256",
              "internalType": "uint256"
            },
            {
              "name": "shipmentId",
              "type": "uint256",
              "internalType": "uint256"
            },
            {
              "name": "actor",
              "type": "address",
              "internalType": "address"
            },
            {
              "name": "location",
              "type": "string",
              "internalType": "string"
            },
            {
              "name": "checkpointType",
              "type": "string",
              "internalType": "string"
            },
            {
              "name": "timestamp",
              "type": "uint256",
              "internalType": "uint256"
            },
            {
              "name": "notes",
              "type": "string",
              "internalType": "string"
            },
            {
              "name": "temperature",
              "type": "int256",
              "internalType": "int256"
            }
          ]
        }
      ],
      "stateMutability": "view"
    },
    {
      "type": "function",
      "name": "getShipmentIncidents",
      "inputs": [
        {
          "name": "_shipmentId",
          "type": "uint256",
          "internalType": "uint256"
        }
      ],
      "outputs": [
        {
          "name": "",
          "type": "tuple[]",
          "internalType": "struct LogisticsTracker.Incident[]",
          "components": [
            {
              "name": "id",
              "type": "uint256",
              "internalType": "uint256"
            },
            {
              "name": "shipmentId",
              "type": "uint256",
              "internalType": "uint256"
            },
            {
              "name": "incidentType",
              "type": "uint8",
              "internalType": "enum LogisticsTracker.IncidentType"
            },
            {
              "name": "reporter",
              "type": "address",
              "internalType": "address"
            },
            {
              "name": "description",
              "type": "string",
              "internalType": "string"
            },
            {
              "name": "timestamp",
              "type": "uint256",
              "internalType": "uint256"
            },
            {
              "name": "resolved",
              "type": "bool",
              "internalType": "bool"
            },
            {
              "name": "resolutionNote",
              "type": "string",
              "internalType": "string"
            }
          ]
        }
      ],
      "stateMutability": "view"
    },
    {
      "type": "function",
      "name": "incidents",
      "inputs": [
        {
          "name": "",
          "type": "uint256",
          "internalType": "uint256"
        }
      ],
      "outputs": [
        {
          "name": "id",
          "type": "uint256",
          "internalType": "uint256"
        },
        {
          "name": "shipmentId",
          "type": "uint256",
          "internalType": "uint256"
        },
        {
          "name": "incidentType",
          "type": "uint8",
          "internalType": "enum LogisticsTracker.IncidentType"
        },
        {
          "name": "reporter",
          "type": "address",
          "internalType": "address"
        },
        {
          "name": "description",
          "type": "string",
          "internalType": "string"
        },
        {
          "name": "timestamp",
          "type": "uint256",
          "internalType": "uint256"
        },
        {
          "name": "resolved",
          "type": "bool",
          "internalType": "bool"
        },
        {
          "name": "resolutionNote",
          "type": "string",
          "internalType": "string"
        }
      ],
      "stateMutability": "view"
    },
    {
      "type": "function",
      "name": "nextCheckpointId",
      "inputs": [],
      "outputs": [
        {
          "name": "",
          "type": "uint256",
          "internalType": "uint256"
        }
      ],
      "stateMutability": "view"
    },
    {
      "type": "function",
      "name": "nextIncidentId",
      "inputs": [],
      "outputs": [
        {
          "name": "",
          "type": "uint256",
          "internalType": "uint256"
        }
      ],
      "stateMutability": "view"
    },
    {
      "type": "function",
      "name": "nextShipmentId",
      "inputs": [],
      "outputs": [
        {
          "name": "",
          "type": "uint256",
          "internalType": "uint256"
        }
      ],
      "stateMutability": "view"
    },
    {
      "type": "function",
      "name": "recordCheckpoint",
      "inputs": [
        {
          "name": "_shipmentId",
          "type": "uint256",
          "internalType": "uint256"
        },
        {
          "name": "_location",
          "type": "string",
          "internalType": "string"
        },
        {
          "name": "_checkpointType",
          "type": "string",
          "internalType": "string"
        },
        {
          "name": "_notes",
          "type": "string",
          "internalType": "string"
        },
        {
          "name": "_temperature",
          "type": "int256",
          "internalType": "int256"
        }
      ],
      "outputs": [
        {
          "name": "",
          "type": "uint256",
          "internalType": "uint256"
        }
      ],
      "stateMutability": "nonpayable"
    },
    {
      "type": "function",
      "name": "registerActor",
      "inputs": [
        {
          "name": "_name",
          "type": "string",
          "internalType": "string"
        },
        {
          "name": "_role",
          "type": "uint8",
          "internalType": "enum LogisticsTracker.ActorRole"
        },
        {
          "name": "_location",
          "type": "string",
          "internalType": "string"
        }
      ],
      "outputs": [],
      "stateMutability": "nonpayable"
    },
    {
      "type": "function",
      "name": "reportIncident",
      "inputs": [
        {
          "name": "_shipmentId",
          "type": "uint256",
          "internalType": "uint256"
        },
        {
          "name": "_incidentType",
          "type": "uint8",
          "internalType": "enum LogisticsTracker.IncidentType"
        },
        {
          "name": "_description",
          "type": "string",
          "internalType": "string"
        }
      ],
      "outputs": [
        {
          "name": "",
          "type": "uint256",
          "internalType": "uint256"
        }
      ],
      "stateMutability": "nonpayable"
    },
    {
      "type": "function",
      "name": "resolveIncident",
      "inputs": [
        {
          "name": "_incidentId",
          "type": "uint256",
          "internalType": "uint256"
        },
        {
          "name": "_note",
          "type": "string",
          "internalType": "string"
        }
      ],
      "outputs": [],
      "stateMutability": "nonpayable"
    },
    {
      "type": "function",
      "name": "shipments",
      "inputs": [
        {
          "name": "",
          "type": "uint256",
          "internalType": "uint256"
        }
      ],
      "outputs": [
        {
          "name": "id",
          "type": "uint256",
          "internalType": "uint256"
        },
        {
          "name": "sender",
          "type": "address",
          "internalType": "address"
        },
        {
          "name": "recipient",
          "type": "address",
          "internalType": "address"
        },
        {
          "name": "product",
          "type": "string",
          "internalType": "string"
        },
        {
          "name": "origin",
          "type": "string",
          "internalType": "string"
        },
        {
          "name": "destination",
          "type": "string",
          "internalType": "string"
        },
        {
          "name": "dateCreated",
          "type": "uint256",
          "internalType": "uint256"
        },
        {
          "name": "dateDelivered",
          "type": "uint256",
          "internalType": "uint256"
        },
        {
          "name": "status",
          "type": "uint8",
          "internalType": "enum LogisticsTracker.ShipmentStatus"
        },
        {
          "name": "requiresColdChain",
          "type": "bool",
          "internalType": "bool"
        }
      ],
      "stateMutability": "view"
    },
    {
      "type": "function",
      "name": "updateShipmentStatus",
      "inputs": [
        {
          "name": "_shipmentId",
          "type": "uint256",
          "internalType": "uint256"
        },
        {
          "name": "_newStatus",
          "type": "uint8",
          "internalType": "enum LogisticsTracker.ShipmentStatus"
        }
      ],
      "outputs": [],
      "stateMutability": "nonpayable"
    },
    {
      "type": "function",
      "name": "verifyTemperatureCompliance",
      "inputs": [
        {
          "name": "_shipmentId",
          "type": "uint256",
          "internalType": "uint256"
        }
      ],
      "outputs": [
        {
          "name": "",
          "type": "bool",
          "internalType": "bool"
        }
      ],
      "stateMutability": "view"
    },
    {
      "type": "event",
      "name": "ActorRegistered",
      "inputs": [
        {
          "name": "actorAddress",
          "type": "address",
          "indexed": true,
          "internalType": "address"
        },
        {
          "name": "name",
          "type": "string",
          "indexed": false,
          "internalType": "string"
        },
        {
          "name": "role",
          "type": "uint8",
          "indexed": false,
          "internalType": "enum LogisticsTracker.ActorRole"
        }
      ],
      "anonymous": false
    },
    {
      "type": "event",
      "name": "ActorStatusChanged",
      "inputs": [
        {
          "name": "actorAddress",
          "type": "address",
          "indexed": true,
          "internalType": "address"
        },
        {
          "name": "isActive",
          "type": "bool",
          "indexed": false,
          "internalType": "bool"
        }
      ],
      "anonymous": false
    },
    {
      "type": "event",
      "name": "CheckpointRecorded",
      "inputs": [
        {
          "name": "checkpointId",
          "type": "uint256",
          "indexed": true,
          "internalType": "uint256"
        },
        {
          "name": "shipmentId",
          "type": "uint256",
          "indexed": true,
          "internalType": "uint256"
        },
        {
          "name": "location",
          "type": "string",
          "indexed": false,
          "internalType": "string"
        },
        {
          "name": "actor",
          "type": "address",
          "indexed": false,
          "internalType": "address"
        }
      ],
      "anonymous": false
    },
    {
      "type": "event",
      "name": "DeliveryConfirmed",
      "inputs": [
        {
          "name": "shipmentId",
          "type": "uint256",
          "indexed": true,
          "internalType": "uint256"
        },
        {
          "name": "recipient",
          "type": "address",
          "indexed": true,
          "internalType": "address"
        },
        {
          "name": "timestamp",
          "type": "uint256",
          "indexed": false,
          "internalType": "uint256"
        }
      ],
      "anonymous": false
    },
    {
      "type": "event",
      "name": "IncidentReported",
      "inputs": [
        {
          "name": "incidentId",
          "type": "uint256",
          "indexed": true,
          "internalType": "uint256"
        },
        {
          "name": "shipmentId",
          "type": "uint256",
          "indexed": true,
          "internalType": "uint256"
        },
        {
          "name": "incidentType",
          "type": "uint8",
          "indexed": false,
          "internalType": "enum LogisticsTracker.IncidentType"
        }
      ],
      "anonymous": false
    },
    {
      "type": "event",
      "name": "IncidentResolved",
      "inputs": [
        {
          "name": "incidentId",
          "type": "uint256",
          "indexed": true,
          "internalType": "uint256"
        }
      ],
      "anonymous": false
    },
    {
      "type": "event",
      "name": "ShipmentCreated",
      "inputs": [
        {
          "name": "shipmentId",
          "type": "uint256",
          "indexed": true,
          "internalType": "uint256"
        },
        {
          "name": "sender",
          "type": "address",
          "indexed": true,
          "internalType": "address"
        },
        {
          "name": "recipient",
          "type": "address",
          "indexed": true,
          "internalType": "address"
        },
        {
          "name": "product",
          "type": "string",
          "indexed": false,
          "internalType": "string"
        }
      ],
      "anonymous": false
    },
    {
      "type": "event",
      "name": "ShipmentStatusChanged",
      "inputs": [
        {
          "name": "shipmentId",
          "type": "uint256",
          "indexed": true,
          "internalType": "uint256"
        },
        {
          "name": "newStatus",
          "type": "uint8",
          "indexed": false,
          "internalType": "enum LogisticsTracker.ShipmentStatus"
        }
      ],
      "anonymous": false
    }
  ],
  "bytecode": {
    "object": "0x6080604052600180556001600255600160035534801561001d575f80fd5b505f80546001600160a01b031916331790556132b68061003c5f395ff3fe608060405234801561000f575f80fd5b5060043610610187575f3560e01c80637faa7bc7116100d9578063c4edcf8b11610093578063eaa66a3c1161006e578063eaa66a3c146103c4578063f851a440146103e8578063fc43669514610412578063fd84cb9714610425575f80fd5b8063c4edcf8b1461038b578063e570c3671461039e578063e7dc3188146103b1575f80fd5b80637faa7bc7146102de5780639578615e146102f1578063a6c6a8f314610311578063af56a42814610338578063b8a242521461035b578063b9a3a68c14610382575f80fd5b80634138d167116101445780635f19f4f51161011f5780635f19f4f51461026b57806372f2f93a1461028b578063733e28aa146102ab5780637defa920146102cb575f80fd5b80634138d16714610223578063475b6f98146102435780635e6b208614610256575f80fd5b8063092b37401461018b5780630fd19668146101bd57806320fc4881146101d4578063229ec452146101f45780632ac08a93146101fd57806333401ee114610210575b5f80fd5b61019e610199366004612803565b610438565b6040516101b49a99989796959493929190612885565b60405180910390f35b6101c660035481565b6040519081526020016101b4565b6101e76101e2366004612803565b610665565b6040516101b491906129a4565b6101c660025481565b61019e61020b366004612803565b61087f565b6101c661021e366004612a53565b610a73565b610236610231366004612b01565b610c4f565b6040516101b49190612b2a565b6101c6610251366004612ba0565b610e1b565b610269610264366004612c4b565b61102a565b005b61027e610279366004612803565b611162565b6040516101b49190612c8f565b61029e610299366004612b01565b61144b565b6040516101b49190612cef565b6102be6102b9366004612803565b6114b4565b6040516101b49190612dcb565b6102696102d9366004612e1e565b611733565b6102696102ec366004612803565b61185b565b6103046102ff366004612803565b61198d565b6040516101b49190612e4f565b61032461031f366004612803565b611b54565b6040516101b4989796959493929190612e61565b61034b610346366004612803565b611cb8565b60405190151581526020016101b4565b61036e610369366004612803565b611d46565b6040516101b4989796959493929190612ece565b6101c660015481565b610269610399366004612f43565b611f24565b6101c66103ac366004612fb9565b6120d9565b6102696103bf366004612b01565b61230b565b6103d76103d2366004612b01565b612407565b6040516101b4959493929190613007565b5f546103fa906001600160a01b031681565b6040516001600160a01b0390911681526020016101b4565b610269610420366004612b01565b612557565b610269610433366004612803565b6125ed565b5f8181526004602081905260408220805460018201546002830154600684015460078501546008860154600b8701546003880180548b9a8b9a60609a8b9a8b9a8e9a8b9a8b9a8b9a969995986001600160a01b03958616989490951696938a019460058b019460ff92831692169087906104b19061305e565b80601f01602080910402602001604051908101604052809291908181526020018280546104dd9061305e565b80156105285780601f106104ff57610100808354040283529160200191610528565b820191905f5260205f20905b81548152906001019060200180831161050b57829003601f168201915b5050505050965085805461053b9061305e565b80601f01602080910402602001604051908101604052809291908181526020018280546105679061305e565b80156105b25780601f10610589576101008083540402835291602001916105b2565b820191905f5260205f20905b81548152906001019060200180831161059557829003601f168201915b505050505095508480546105c59061305e565b80601f01602080910402602001604051908101604052809291908181526020018280546105f19061305e565b801561063c5780601f106106135761010080835404028352916020019161063c565b820191905f5260205f20905b81548152906001019060200180831161061f57829003601f168201915b505050505094509a509a509a509a509a509a509a509a509a509a50509193959799509193959799565b61066d61275f565b5f828152600560209081526040918290208251610100810184528154815260018201549281019290925260028101546001600160a01b0316928201929092526003820180549192916060840191906106c49061305e565b80601f01602080910402602001604051908101604052809291908181526020018280546106f09061305e565b801561073b5780601f106107125761010080835404028352916020019161073b565b820191905f5260205f20905b81548152906001019060200180831161071e57829003601f168201915b505050505081526020016004820180546107549061305e565b80601f01602080910402602001604051908101604052809291908181526020018280546107809061305e565b80156107cb5780601f106107a2576101008083540402835291602001916107cb565b820191905f5260205f20905b8154815290600101906020018083116107ae57829003601f168201915b50505050508152602001600582015481526020016006820180546107ee9061305e565b80601f016020809104026020016040519081016040528092919081815260200182805461081a9061305e565b80156108655780601f1061083c57610100808354040283529160200191610865565b820191905f5260205f20905b81548152906001019060200180831161084857829003601f168201915b505050505081526020016007820154815250509050919050565b60046020525f9081526040902080546001820154600283015460038401805493946001600160a01b039384169493909216926108ba9061305e565b80601f01602080910402602001604051908101604052809291908181526020018280546108e69061305e565b80156109315780601f1061090857610100808354040283529160200191610931565b820191905f5260205f20905b81548152906001019060200180831161091457829003601f168201915b5050505050908060040180546109469061305e565b80601f01602080910402602001604051908101604052809291908181526020018280546109729061305e565b80156109bd5780601f10610994576101008083540402835291602001916109bd565b820191905f5260205f20905b8154815290600101906020018083116109a057829003601f168201915b5050505050908060050180546109d29061305e565b80601f01602080910402602001604051908101604052809291908181526020018280546109fe9061305e565b8015610a495780601f10610a2057610100808354040283529160200191610a49565b820191905f5260205f20905b815481529060010190602001808311610a2c57829003601f168201915b505050600684015460078501546008860154600b909601549495919490935060ff9182169250168a565b335f9081526007602052604081206004015460ff16610aad5760405162461bcd60e51b8152600401610aa490613096565b60405180910390fd5b5f868152600460205260408120549003610afe5760405162461bcd60e51b815260206004820152601260248201527114da1a5c1b595b9d081b9bdd08199bdd5b9960721b6044820152606401610aa4565b600280545f9182610b0e836130c0565b90915550604080516101008101825282815260208082018b815233838501908152606084018c8152608085018c90524260a086015260c085018b905260e085018a90525f878152600590945294909220835181559051600182015590516002820180546001600160a01b0319166001600160a01b039092169190911790559151929350916003820190610ba19082613132565b5060808201516004820190610bb69082613132565b5060a0820151600582015560c08201516006820190610bd59082613132565b5060e091909101516007909101555f8781526004602090815260408083206009018054600181018255908452919092200182905551879082907f866de744a1d30941b1bccb4355cfb9dacfa65296f3ab651a0d4dce76bf988a7190610c3d908a9033906131ee565b60405180910390a39695505050505050565b610c7f6040805160a0810182525f8082526060602083015290918201908152606060208201525f60409091015290565b6001600160a01b038083165f90815260076020908152604091829020825160a081019093528054909316825260018301805492939291840191610cc19061305e565b80601f0160208091040260200160405190810160405280929190818152602001828054610ced9061305e565b8015610d385780601f10610d0f57610100808354040283529160200191610d38565b820191905f5260205f20905b815481529060010190602001808311610d1b57829003601f168201915b5050509183525050600282015460209091019060ff166005811115610d5f57610d5f61285d565b6005811115610d7057610d7061285d565b8152602001600382018054610d849061305e565b80601f0160208091040260200160405190810160405280929190818152602001828054610db09061305e565b8015610dfb5780601f10610dd257610100808354040283529160200191610dfb565b820191905f5260205f20905b815481529060010190602001808311610dde57829003601f168201915b50505091835250506004919091015460ff16151560209091015292915050565b335f9081526007602052604081206004015460ff16610e4c5760405162461bcd60e51b8152600401610aa490613096565b6001335f9081526007602052604090206002015460ff166005811115610e7457610e7461285d565b14610eb25760405162461bcd60e51b815260206004820152600e60248201526d26bab9ba1031329029b2b73232b960911b6044820152606401610aa4565b6001600160a01b038616610efc5760405162461bcd60e51b8152602060048201526011602482015270125b9d985b1a59081c9958da5c1a595b9d607a1b6044820152606401610aa4565b600180545f9182610f0c836130c0565b909155505f818152600460205260409020818155600181018054336001600160a01b0319918216179091556002820180549091166001600160a01b038b1617905590915060038101610f5e8882613132565b5060048101610f6d8782613132565b5060058101610f7c8682613132565b504260068201556008808201805460ff19908116909155600b83018054909116861515179055335f81815260209283526040808220805460018181018355918452858420018790556001600160a01b038d16808452828420805492830181558452949092209091018590555184907f8fb6b855d6cbdf201f2fcaadbf8c38d36168ff7d2ca865cb2599abcd5a060e8f90611017908c90613217565b60405180910390a4509695505050505050565b5f828152600660205260409020600581015460ff161561107f5760405162461bcd60e51b815260206004820152601060248201526f105b1c9958591e481c995cdbdb1d995960821b6044820152606401610aa4565b5f546001600160a01b03163314806110a85750600281015461010090046001600160a01b031633145b806110d857506005335f9081526007602052604090206002015460ff1660058111156110d6576110d661285d565b145b6111155760405162461bcd60e51b815260206004820152600e60248201526d139bdd08185d5d1a1bdc9a5e995960921b6044820152606401610aa4565b60058101805460ff19166001179055600681016111328382613132565b5060405183907ff83ae0ade2d9004bc0030405bdd3336f9d9b97530bcf44cce99ce02c95641b77905f90a2505050565b5f81815260046020526040812060090180546060929067ffffffffffffffff811115611190576111906129b6565b6040519080825280602002602001820160405280156111c957816020015b6111b661275f565b8152602001906001900390816111ae5790505b5090505f5b82548110156114435760055f8483815481106111ec576111ec613229565b905f5260205f20015481526020019081526020015f20604051806101000160405290815f820154815260200160018201548152602001600282015f9054906101000a90046001600160a01b03166001600160a01b03166001600160a01b0316815260200160038201805461125f9061305e565b80601f016020809104026020016040519081016040528092919081815260200182805461128b9061305e565b80156112d65780601f106112ad576101008083540402835291602001916112d6565b820191905f5260205f20905b8154815290600101906020018083116112b957829003601f168201915b505050505081526020016004820180546112ef9061305e565b80601f016020809104026020016040519081016040528092919081815260200182805461131b9061305e565b80156113665780601f1061133d57610100808354040283529160200191611366565b820191905f5260205f20905b81548152906001019060200180831161134957829003601f168201915b50505050508152602001600582015481526020016006820180546113899061305e565b80601f01602080910402602001604051908101604052809291908181526020018280546113b59061305e565b80156114005780601f106113d757610100808354040283529160200191611400565b820191905f5260205f20905b8154815290600101906020018083116113e357829003601f168201915b5050505050815260200160078201548152505082828151811061142557611425613229565b6020026020010181905250808061143b906130c0565b9150506111ce565b509392505050565b6001600160a01b0381165f908152600860209081526040918290208054835181840281018401909452808452606093928301828280156114a857602002820191905f5260205f20905b815481526020019060010190808311611494575b50505050509050919050565b5f818152600460205260408120600a0180546060929067ffffffffffffffff8111156114e2576114e26129b6565b60405190808252806020026020018201604052801561151b57816020015b6115086127a8565b8152602001906001900390816115005790505b5090505f5b82548110156114435760065f84838154811061153e5761153e613229565b905f5260205f20015481526020019081526020015f20604051806101000160405290815f820154815260200160018201548152602001600282015f9054906101000a900460ff1660048111156115965761159661285d565b60048111156115a7576115a761285d565b8152600282015461010090046001600160a01b031660208201526003820180546040909201916115d69061305e565b80601f01602080910402602001604051908101604052809291908181526020018280546116029061305e565b801561164d5780601f106116245761010080835404028352916020019161164d565b820191905f5260205f20905b81548152906001019060200180831161163057829003601f168201915b505050918352505060048201546020820152600582015460ff16151560408201526006820180546060909201916116839061305e565b80601f01602080910402602001604051908101604052809291908181526020018280546116af9061305e565b80156116fa5780601f106116d1576101008083540402835291602001916116fa565b820191905f5260205f20905b8154815290600101906020018083116116dd57829003601f168201915b50505050508152505082828151811061171557611715613229565b6020026020010181905250808061172b906130c0565b915050611520565b335f9081526007602052604090206004015460ff166117645760405162461bcd60e51b8152600401610aa490613096565b5f8281526004602081905260409091206008015460ff169081600681111561178e5761178e61285d565b141580156117ae575060068160068111156117ab576117ab61285d565b14155b6117ec5760405162461bcd60e51b815260206004820152600f60248201526e5465726d696e616c2073746174757360881b6044820152606401610aa4565b5f838152600460205260409020600801805483919060ff191660018360068111156118195761181961285d565b0217905550827f7c1c93f72f29b8a1fc6fc85eed990d133b1ffac80c962b521abb12f38f2ff9af8360405161184e919061323d565b60405180910390a2505050565b335f9081526007602052604090206004015460ff1661188c5760405162461bcd60e51b8152600401610aa490613096565b5f81815260046020526040902060018101546001600160a01b031633146118e25760405162461bcd60e51b815260206004820152600a6024820152692737ba1039b2b73232b960b11b6044820152606401610aa4565b6004600882015460ff1660068111156118fd576118fd61285d565b0361193e5760405162461bcd60e51b8152602060048201526011602482015270105b1c9958591e4819195b1a5d995c9959607a1b6044820152606401610aa4565b60088101805460ff1916600690811790915560405183917f7c1c93f72f29b8a1fc6fc85eed990d133b1ffac80c962b521abb12f38f2ff9af91611981919061323d565b60405180910390a25050565b6119956127a8565b5f82815260066020908152604091829020825161010081018452815481526001820154928101929092526002810154919290919083019060ff1660048111156119e0576119e061285d565b60048111156119f1576119f161285d565b8152600282015461010090046001600160a01b03166020820152600382018054604090920191611a209061305e565b80601f0160208091040260200160405190810160405280929190818152602001828054611a4c9061305e565b8015611a975780601f10611a6e57610100808354040283529160200191611a97565b820191905f5260205f20905b815481529060010190602001808311611a7a57829003601f168201915b505050918352505060048201546020820152600582015460ff1615156040820152600682018054606090920191611acd9061305e565b80601f0160208091040260200160405190810160405280929190818152602001828054611af99061305e565b8015611b445780601f10611b1b57610100808354040283529160200191611b44565b820191905f5260205f20905b815481529060010190602001808311611b2757829003601f168201915b5050505050815250509050919050565b60066020525f908152604090208054600182015460028301546003840180549394929360ff8316936101009093046001600160a01b0316929190611b979061305e565b80601f0160208091040260200160405190810160405280929190818152602001828054611bc39061305e565b8015611c0e5780601f10611be557610100808354040283529160200191611c0e565b820191905f5260205f20905b815481529060010190602001808311611bf157829003601f168201915b50505050600483015460058401546006850180549495929460ff909216935090611c379061305e565b80601f0160208091040260200160405190810160405280929190818152602001828054611c639061305e565b8015611cae5780601f10611c8557610100808354040283529160200191611cae565b820191905f5260205f20905b815481529060010190602001808311611c9157829003601f168201915b5050505050905088565b5f818152600460205260408120600a01815b8154811015611d3c57600360065f848481548110611cea57611cea613229565b5f918252602080832090910154835282019290925260400190206002015460ff166004811115611d1c57611d1c61285d565b03611d2a57505f9392505050565b80611d34816130c0565b915050611cca565b5060019392505050565b60056020525f90815260409020805460018201546002830154600384018054939492936001600160a01b039092169291611d7f9061305e565b80601f0160208091040260200160405190810160405280929190818152602001828054611dab9061305e565b8015611df65780601f10611dcd57610100808354040283529160200191611df6565b820191905f5260205f20905b815481529060010190602001808311611dd957829003601f168201915b505050505090806004018054611e0b9061305e565b80601f0160208091040260200160405190810160405280929190818152602001828054611e379061305e565b8015611e825780601f10611e5957610100808354040283529160200191611e82565b820191905f5260205f20905b815481529060010190602001808311611e6557829003601f168201915b505050505090806005015490806006018054611e9d9061305e565b80601f0160208091040260200160405190810160405280929190818152602001828054611ec99061305e565b8015611f145780601f10611eeb57610100808354040283529160200191611f14565b820191905f5260205f20905b815481529060010190602001808311611ef757829003601f168201915b5050505050908060070154905088565b5f826005811115611f3757611f3761285d565b03611f735760405162461bcd60e51b815260206004820152600c60248201526b496e76616c696420726f6c6560a01b6044820152606401610aa4565b335f908152600760205260409020546001600160a01b031615611fcd5760405162461bcd60e51b8152602060048201526012602482015271105b1c9958591e481c9959da5cdd195c995960721b6044820152606401610aa4565b6040518060a00160405280336001600160a01b03168152602001848152602001836005811115611fff57611fff61285d565b815260208082018490525f60409283018190523381526007825291909120825181546001600160a01b0319166001600160a01b0390911617815590820151600182019061204c9082613132565b50604082015160028201805460ff191660018360058111156120705761207061285d565b0217905550606082015160038201906120899082613132565b50608091909101516004909101805460ff191691151591909117905560405133907fc9a31de765abe70445345802bee3c96554ca063ab257e3888d498accb859fabc9061184e9086908690613251565b335f9081526007602052604081206004015460ff1661210a5760405162461bcd60e51b8152600401610aa490613096565b5f84815260046020526040812054900361215b5760405162461bcd60e51b815260206004820152601260248201527114da1a5c1b595b9d081b9bdd08199bdd5b9960721b6044820152606401610aa4565b600380545f918261216b836130c0565b91905055905060405180610100016040528082815260200186815260200185600481111561219b5761219b61285d565b8152602001336001600160a01b031681526020018481526020014281526020015f1515815260200160405180602001604052805f81525081525060065f8381526020019081526020015f205f820151815f0155602082015181600101556040820151816002015f6101000a81548160ff021916908360048111156122215761222161285d565b021790555060608201516002820180546001600160a01b0390921661010002610100600160a81b0319909216919091179055608082015160038201906122679082613132565b5060a0820151600482015560c082015160058201805460ff191691151591909117905560e0820151600682019061229e9082613132565b5050505f858152600460209081526040808320600a018054600181018255908452919092200182905551859082907fc2c9d0fa5caecea68b9ec6aca764014b01764f779d8a510f0d0d6796b76b7c83906122f9908890613272565b60405180910390a390505b9392505050565b5f546001600160a01b031633146123505760405162461bcd60e51b81526020600482015260096024820152682737ba1030b236b4b760b91b6044820152606401610aa4565b6001600160a01b038181165f90815260076020526040902054166123a75760405162461bcd60e51b815260206004820152600e60248201526d139bdd081c9959da5cdd195c995960921b6044820152606401610aa4565b6001600160a01b0381165f81815260076020908152604091829020600401805460ff1916600190811790915591519182527f7d434f3bffe7db5f776c1c2b3b22e492788bdfbd071e9aa176f096970ea8893391015b60405180910390a250565b60076020525f9081526040902080546001820180546001600160a01b0390921692916124329061305e565b80601f016020809104026020016040519081016040528092919081815260200182805461245e9061305e565b80156124a95780601f10612480576101008083540402835291602001916124a9565b820191905f5260205f20905b81548152906001019060200180831161248c57829003601f168201915b5050506002840154600385018054949560ff9092169491935091506124cd9061305e565b80601f01602080910402602001604051908101604052809291908181526020018280546124f99061305e565b80156125445780601f1061251b57610100808354040283529160200191612544565b820191905f5260205f20905b81548152906001019060200180831161252757829003601f168201915b5050506004909301549192505060ff1685565b5f546001600160a01b0316331461259c5760405162461bcd60e51b81526020600482015260096024820152682737ba1030b236b4b760b91b6044820152606401610aa4565b6001600160a01b0381165f818152600760209081526040808320600401805460ff19169055519182527f7d434f3bffe7db5f776c1c2b3b22e492788bdfbd071e9aa176f096970ea8893391016123fc565b335f9081526007602052604090206004015460ff1661261e5760405162461bcd60e51b8152600401610aa490613096565b5f81815260046020526040902060028101546001600160a01b031633146126775760405162461bcd60e51b815260206004820152600d60248201526c139bdd081c9958da5c1a595b9d609a1b6044820152606401610aa4565b6004600882015460ff1660068111156126925761269261285d565b036126d35760405162461bcd60e51b8152602060048201526011602482015270105b1c9958591e4819195b1a5d995c9959607a1b6044820152606401610aa4565b60088101805460ff1916600490811790915542600783015560405183917f7c1c93f72f29b8a1fc6fc85eed990d133b1ffac80c962b521abb12f38f2ff9af9161271c919061323d565b60405180910390a2604051428152339083907f2f4a952729db32131cb3d658cc231127e0ce7e50f83508ece9a49c985f2384d09060200160405180910390a35050565b6040518061010001604052805f81526020015f81526020015f6001600160a01b0316815260200160608152602001606081526020015f8152602001606081526020015f81525090565b6040518061010001604052805f81526020015f81526020015f60048111156127d2576127d261285d565b81526020015f6001600160a01b03168152602001606081526020015f81526020015f15158152602001606081525090565b5f60208284031215612813575f80fd5b5035919050565b5f81518084525f5b8181101561283e57602081850181015186830182015201612822565b505f602082860101526020601f19601f83011685010191505092915050565b634e487b7160e01b5f52602160045260245ffd5b600781106128815761288161285d565b9052565b8a81526001600160a01b038a8116602083015289166040820152610140606082018190525f906128b78382018b61281a565b905082810360808401526128cb818a61281a565b905082810360a08401526128df818961281a565b9150508560c08301528460e08301526128fc610100830185612871565b8215156101208301529b9a5050505050505050505050565b5f610100825184526020830151602085015260018060a01b036040840151166040850152606083015181606086015261294f8286018261281a565b91505060808301518482036080860152612969828261281a565b91505060a083015160a085015260c083015184820360c086015261298d828261281a565b91505060e083015160e08501528091505092915050565b602081525f6123046020830184612914565b634e487b7160e01b5f52604160045260245ffd5b5f82601f8301126129d9575f80fd5b813567ffffffffffffffff808211156129f4576129f46129b6565b604051601f8301601f19908116603f01168101908282118183101715612a1c57612a1c6129b6565b81604052838152866020858801011115612a34575f80fd5b836020870160208301375f602085830101528094505050505092915050565b5f805f805f60a08688031215612a67575f80fd5b85359450602086013567ffffffffffffffff80821115612a85575f80fd5b612a9189838a016129ca565b95506040880135915080821115612aa6575f80fd5b612ab289838a016129ca565b94506060880135915080821115612ac7575f80fd5b50612ad4888289016129ca565b95989497509295608001359392505050565b80356001600160a01b0381168114612afc575f80fd5b919050565b5f60208284031215612b11575f80fd5b61230482612ae6565b600681106128815761288161285d565b602080825282516001600160a01b03168282015282015160a060408301525f90612b5760c084018261281a565b90506040840151612b6b6060850182612b1a565b506060840151838203601f19016080850152612b87828261281a565b9150506080840151151560a08401528091505092915050565b5f805f805f60a08688031215612bb4575f80fd5b612bbd86612ae6565b9450602086013567ffffffffffffffff80821115612bd9575f80fd5b612be589838a016129ca565b95506040880135915080821115612bfa575f80fd5b612c0689838a016129ca565b94506060880135915080821115612c1b575f80fd5b50612c28888289016129ca565b92505060808601358015158114612c3d575f80fd5b809150509295509295909350565b5f8060408385031215612c5c575f80fd5b82359150602083013567ffffffffffffffff811115612c79575f80fd5b612c85858286016129ca565b9150509250929050565b5f602080830181845280855180835260408601915060408160051b87010192508387015f5b82811015612ce257603f19888603018452612cd0858351612914565b94509285019290850190600101612cb4565b5092979650505050505050565b602080825282518282018190525f9190848201906040850190845b81811015612d2657835183529284019291840191600101612d0a565b50909695505050505050565b600581106128815761288161285d565b5f61010082518452602083015160208501526040830151612d666040860182612d32565b506060838101516001600160a01b031690850152608080840151908501829052612d928286018261281a565b91505060a083015160a085015260c0830151151560c085015260e083015184820360e0860152612dc2828261281a565b95945050505050565b5f602080830181845280855180835260408601915060408160051b87010192508387015f5b82811015612ce257603f19888603018452612e0c858351612d42565b94509285019290850190600101612df0565b5f8060408385031215612e2f575f80fd5b82359150602083013560078110612e44575f80fd5b809150509250929050565b602081525f6123046020830184612d42565b5f6101008a8352896020840152612e7b604084018a612d32565b6001600160a01b038816606084015260808301819052612e9d8184018861281a565b90508560a084015284151560c084015282810360e0840152612ebf818561281a565b9b9a5050505050505050505050565b888152602081018890526001600160a01b0387166040820152610100606082018190525f90612eff8382018961281a565b90508281036080840152612f13818861281a565b90508560a084015282810360c0840152612f2d818661281a565b9150508260e08301529998505050505050505050565b5f805f60608486031215612f55575f80fd5b833567ffffffffffffffff80821115612f6c575f80fd5b612f78878388016129ca565b94506020860135915060068210612f8d575f80fd5b90925060408501359080821115612fa2575f80fd5b50612faf868287016129ca565b9150509250925092565b5f805f60608486031215612fcb575f80fd5b83359250602084013560058110612fe0575f80fd5b9150604084013567ffffffffffffffff811115612ffb575f80fd5b612faf868287016129ca565b6001600160a01b038616815260a0602082018190525f9061302a9083018761281a565b6130376040840187612b1a565b8281036060840152613049818661281a565b91505082151560808301529695505050505050565b600181811c9082168061307257607f821691505b60208210810361309057634e487b7160e01b5f52602260045260245ffd5b50919050565b60208082526010908201526f4163746f72206e6f742061637469766560801b604082015260600190565b5f600182016130dd57634e487b7160e01b5f52601160045260245ffd5b5060010190565b601f82111561312d575f81815260208120601f850160051c8101602086101561310a5750805b601f850160051c820191505b8181101561312957828155600101613116565b5050505b505050565b815167ffffffffffffffff81111561314c5761314c6129b6565b6131608161315a845461305e565b846130e4565b602080601f831160018114613193575f841561317c5750858301515b5f19600386901b1c1916600185901b178555613129565b5f85815260208120601f198616915b828110156131c1578886015182559484019460019091019084016131a2565b50858210156131de57878501515f19600388901b60f8161c191681555b5050505050600190811b01905550565b604081525f613200604083018561281a565b905060018060a01b03831660208301529392505050565b602081525f612304602083018461281a565b634e487b7160e01b5f52603260045260245ffd5b6020810161324b8284612871565b92915050565b604081525f613263604083018561281a565b90506123046020830184612b1a565b6020810161324b8284612d3256fea264697066735822122058c1997459dddfd50028acfb96a9036ea8c07f6109834beb080304eab934809a64736f6c63430008140033",
    "linkReferences": {}
  },
  "methodIdentifiers": {
    "actors(address)": "eaa66a3c",
    "admin()": "f851a440",
    "approveActor(address)": "e7dc3188",
    "cancelShipment(uint256)": "7faa7bc7",
    "checkpoints(uint256)": "b8a24252",
    "confirmDelivery(uint256)": "fd84cb97",
    "createShipment(address,string,string,string,bool)": "475b6f98",
    "deactivateActor(address)": "fc436695",
    "getActor(address)": "4138d167",
    "getActorShipments(address)": "72f2f93a",
    "getCheckpoint(uint256)": "20fc4881",
    "getIncident(uint256)": "9578615e",
    "getShipment(uint256)": "092b3740",
    "getShipmentCheckpoints(uint256)": "5f19f4f5",
    "getShipmentIncidents(uint256)": "733e28aa",
    "incidents(uint256)": "a6c6a8f3",
    "nextCheckpointId()": "229ec452",
    "nextIncidentId()": "0fd19668",
    "nextShipmentId()": "b9a3a68c",
    "recordCheckpoint(uint256,string,string,string,int256)": "33401ee1",
    "registerActor(string,uint8,string)": "c4edcf8b",
    "reportIncident(uint256,uint8,string)": "e570c367",
    "resolveIncident(uint256,string)": "5e6b2086",
    "shipments(uint256)": "2ac08a93",
    "updateShipmentStatus(uint256,uint8)": "7defa920",
    "verifyTemperatureCompliance(uint256)": "af56a428"
  },
  "id": 21
}